:100000000C94B4000C9495080C9495080C949508E5
:100010000C9495080C9495080C9495080C949508EC
:100020000C9495080C9495080C9495080C949508DC
:100030000C9495080C9495080C9495080C949508CC
:100040000C9495080C9495080C9448070C9495080A
:100050000C9495080C9495080C9495080C949508AC
:100060000C9495080C9495080100011D8000004037
:100070007A10F35A00A0724E18090010A5D4E800B7
:1000800000E87648170000E40B54020000CA9A3BCF
:10009000000000E1F5050000809698000000404255
:1000A0000F000000A08601000000102700000000E3
:1000B000E803000000006400000000000A000000E7
:1000C00000000100000000002C76D888DC674F0893
:1000D00023DFC1DFAE59E1B1B796E5E3E453C63A99
:1000E000E651997696E8E6C28426EB898C9B62ED10
:1000F000407C6FFCEFBC9C9F40F2BAA56FA5F490CA
:10010000055A2AF75C936B6CF9676DC11BFCE0E440
:100110000D47FEF520E6B500D0ED902E0300943596
:1001200077050080841E080000204E0A000000C8E9
:100130000C333333330F986E12831141EF8D21143A
:10014000893BE65516CFFEE6DB18D1844B381BF70A
:100150007C1D901DA4BBE424203284725E228100A9
:10016000C9F124ECA1E53D2711241FBECFEFD8E053
:10017000DEBFCDBFE8E6F0E040E017C0B591A59145
:1001800035912591059107FD0CC095918591EF0161
:10019000F92FE82F05900D92A217B307D9F7FE01AA
:1001A00004C01D92A217B307E1F7ED36F40731F74B
:0C01B0000E9462050C94DC00F894FFCF64
:0B01BC00252E31662D252E31660A002D
:0801C700696E66006E616E00B6
:1001D000A4E1B0E0EEEEF0E00C94BA076C011A0175
:1001E000462E5901FC0110861782848181FF62C36B
:1001F000CE0101969D878C87A0E88A8B9B8BAC8B68
:10020000F101849147FC8081882309F44FC3442D78
:1002100091012F5F3F4F4F4F853219F01901442E46
:100220000AC0F901849147FD808192E0290E311CBA
:10023000411C853249F4B60190E00E94DB06BF867E
:10024000AE86AE84BF84DCCF10E0F12C00E000323B
:10025000A0F48B3269F030F4803259F0833269F4C3
:1002600000612CC08D3239F0803339F4016026C032
:100270000260046023C0086021C007FD29C090ED22
:10028000980F9A3078F406FF06C0AAE01A9F900DE6
:100290001124192F13C0EAE0FE9E900D1124F92EAF
:1002A00000620CC08E3221F406FD00C3006406C05B
:1002B0008C3611F4006802C0883651F4F101849143
:1002C00047FC8081FFEF2F1A3F0A4F0A8111BFCFF1
:1002D0009BEB980F933018F40061805E06C09BE999
:1002E000980F933008F066C10F7E06FF16E00F737B
:1002F000702E853621F4202F2064722E08C0863699
:1003000021F4802F8068782E02C01111115077FEE1
:1003100007C01C3350F4EE24E394E10E27E00BC039
:10032000183038F027E017E005C027E06CE3E62E30
:1003300002C0212FE12CF5013496FF87EE87F501ED
:1003400060817181828193810E2DAE014F5F5F4F7D
:100350000E948A045C01598050FE02C053FE06C010
:1003600071FC06C072FE06C000E205C00DE203C0CB
:100370000BE201C000E0852D8C7019F0011173C2F1
:10038000BEC277FE0FC0EA0C54FE04C08A818133DE
:1003900009F4EA941E1474F528E02E1578F538E077
:1003A000E32E2CC076FC2AC0812F90E08A159B0595
:1003B0009CF08CEFA8168FEFB80674F0972D90681C
:1003C000792E0AC0E2E0F0E0EC0FFD1FE10FF11D15
:1003D0008081803319F411501111F4CF77FE0EC0D3
:1003E000EE24E394E10E812F90E0A816B9062CF4D8
:1003F0001A1904C0EE24E39401C010E077FE06C091
:100400001A141B0434F4C501019605C085E090E080
:1004100002C081E090E001110196112331F0212FFB
:1004200030E02F5F3F4F820F931F2F2D30E0821758
:10043000930714F4F81A01C0F12C872D897049F440
:10044000FF2039F0B60180E290E00E94DB06FA94CA
:10045000F7CF002329F0B601802F90E00E94DB0641
:1004600073FC09C0FF2039F0B60180E390E00E94E0
:10047000DB06FA94F7CF77FE49C03501B7FE02C01C
:10048000612C712CC5018619970988248394912CBD
:100490008C0E9D1E880E991EF501EE19F109F98B3F
:1004A000E88B012F10E0119501951109FFEF6F16F0
:1004B0007F0629F4B6018EE290E00E94DB06A614C6
:1004C000B70444F088899989861597051CF4F401CE
:1004D000818101C080E3F1E06F1A71082FEF821A69
:1004E000920A601671062CF0B60190E00E94DB06BD
:1004F000DDCFA614B70439F49A81963318F49533F6
:1005000011F454FE81E3B60190E051C08A81813339
:1005100019F0952D9F7E592EB60190E00E94DB06C2
:10052000111105C074FC1CC085E690E01BC0B6012B
:100530008EE290E00E94DB0602E0010F82E011E013
:10054000180FE1E0F0E0EC0FFD1FE80FF11D8081D6
:10055000B60190E00E94DB06812F1013F0CFE2CFAE
:1005600085E490E0B6010E94DB06B7FC05C0A1144B
:10057000B10439F454FE05C0B194A194B1088DE2E0
:1005800001C08BE2B60190E00E94DB0680E3EAE066
:10059000AE16B1042CF08F5FAAE0AA1AB108F7CF0B
:1005A000B60190E00E94DB06B601C501C0960E942C
:1005B000DB0672C1833631F0833791F0833509F061
:1005C0005DC024C0C50102969F878E87F50180819A
:1005D00089836A887B888C88AA24A394B12C14C050
:1005E000C50103969F878E87F501608071808280A8
:1005F00006FF03C0412F50E002C04FEF5FEF882D90
:10060000B3010E940C085C010F7715C0C501039669
:100610009F878E87F50160807180828006FF03C00E
:10062000412F50E002C04FEF5FEF882DB3010E94D1
:100630000C085C01006803FD1DC08F2D90E0A8161A
:10064000B906C0F4B60180E290E00E94DB06FA949D
:10065000F4CFF301849187FC8081FFEF6F1A7F0A4A
:100660008F0AB60190E00E94DB06F110FA9421E0B7
:10067000A21AB108A114B10461F70EC1843611F0B9
:10068000893679F5C50107FF09C004969F878E87D3
:10069000F50160817181828193810AC002969F87F2
:1006A0008E87F50160817181072E000C880B990BF4
:1006B0000F76E02E97FF0AC0909580957095619512
:1006C0007F4F8F4F9F4FF02FF068EF2E2AE030E0E2
:1006D000AE014F5F5F4F0E944006A82E2C85A21AE4
:1006E0004BC0853729F40F7EE02E2AE030E025C08C
:1006F000902F997FE92E8F36C1F018F4883579F064
:10070000D5C0803719F0883721F0D0C0A92FA0615B
:10071000EA2EE4FE0DC0EE2DE460EE2E09C004FFCB
:100720000AC0F92FF660EF2E06C028E030E005C0C1
:1007300020E130E002C020E132E0C501E7FE09C05F
:1007400004969F878E87F5016081718182819381F4
:1007500008C002969F878E87F5016081718180E0D5
:1007600090E0AE014F5F5F4F0E944006A82EFC85CF
:10077000AF1A2E2D2F77E22EE6FE0BC00E2D0E7F28
:10078000A11650F4E4FE0AC0E2FC08C00E2D0E7E55
:1007900005C0BA2C0E2D03C0BA2C01C0B12E04FF27
:1007A0000DC0FE01EA0DF11D8081803311F4097E38
:1007B00009C002FF06C0B394B39404C0802F8678AA
:1007C00009F0B39403FD11C000FF06C0BF1488F404
:1007D000FA0C1F2D1B190EC0BF1460F4B60180E285
:1007E00090E00E94DB06B394F7CFBF1418F4FB1817
:1007F00002C01A2DF12C04FF10C0B60180E390E076
:100800000E94DB0602FF17C001FD03C088E790E0ED
:1008100002C088E590E0B6010CC0802F867859F0C0
:1008200001FF02C08BE201C080E207FD8DE2B6014C
:1008300090E00E94DB06A11638F4B60180E390E058
:100840000E94DB061150F7CFAA94E1E0F0E0EC0F34
:10085000FD1FEA0DF11D8081B60190E00E94DB06CC
:10086000A110F2CF19C0F4E0FF1580F584E0F81A6A
:1008700073FE23C001112BC053FE2FC05BEC852EED
:1008800051E0952E50E0A52E072D0071F4018491C2
:10089000A7FC8081811128C0FF2009F4D2CCB601C9
:1008A00080E290E00E94DB06FA94F6CFF6018781A1
:1008B00090852CC08FEF9FEF29C0B60180E290E0B9
:1008C0000E94DB06FA94F110F8CFD4CFF12CB601D8
:1008D000802F90E00E94DB06CFCF47EC842E41E0D2
:1008E000942E40E0A42ED0CF01118052B60190E0AA
:1008F0000E94DB06FFEF8F1A9F0AAF0AC7CF23E0E3
:100900002F1510F483E0B3CFF12CB6CF6496E2E15B
:040910000C94F1074B
:10091400283008F027E03327DA01990F311D87FDCD
:10092400916000966105710539F432602E5F3D9344
:1009340030E32A95E1F708959F3F30F08038710540
:10094400610509F03C5F3C5F3D93913008F080689D
:10095400911DDF93CF931F930F93FF92EF92192F63
:10096400987F9695E92F96959695E90FFF27E8537A
:10097400FF4F99273327EE24FF24A701E7010590B1
:100984000894079428F4360FE71EF81E491F511DDA
:10099400660F771F881F991F0694A1F70590079487
:1009A40028F4E70EF81E491F561FC11D770F881F34
:1009B400991F661F0694A1F70590079428F4F80E72
:1009C400491F561FC71FD11D880F991F661F771F08
:1009D4000694A1F70590079420F4490F561FC71FEA
:1009E400D81F990F661F771F881F0694A9F7849153
:1009F4001095177041F0D695C79557954795F7947C
:100A0400E7941A95C1F7EEE6F0E068941590159115
:100A140035916591959105907FE27395E118F10AFE
:100A2400430B560BC90BD009C0F7E10CF11E431F51
:100A3400561FC91FD01D7EF4703311F48A95E6CF7A
:100A4400E894015030F0080F0AF40027021708F464
:100A5400202F2395022F7A3328F079E37D932A956A
:100A6400E9F710C07D932A9589F6069497956795C2
:100A7400379517951794E118F10A430B560BC90BD8
:100A8400D00998F023957E9173957A3308F070E33A
:100A94007C932013B8F77E9170617D9330F0839539
:100AA40071E37D9370E32A95E1F71124EF90FF90B1
:100AB4000F911F91CF91DF91992787FD909508950C
:100AC400F8948FEF84B90E9427080E94170778943E
:100AD4000F2EFCEBCF2EF1E0DF2EF0E0EF2EF02D09
:100AE400C4E0D1E03E0120E8822E80E00E9441086B
:100AF400BC0180E090E00E949E062AE038E240EAD1
:100B04005BE30E948E08609300017093010180935F
:100B140002019093030181E00E944108BC0180E03E
:100B240090E00E949E062AE038E240EA5BE30E94DD
:100B34008E08262F372F462F572F682F792F409353
:100B4400190150931A0160931B0170931C019F9328
:100B54008F933F932F93809103018F938091020190
:100B64008F93809101018F93809100018F93EF9275
:100B7400DF92CF92DF93CF930E947507882DB30144
:100B84000E94D6072FEF89E698E1215080409040DB
:100B9400E1F700C000008DB79EB70D960FB6F8942C
:080BA4009EBF0FBE8DBFA1CF63
:100BAC000FC00E94730838F00E947A0820F0952339
:100BBC0011F00C9488080C94920811240C9482085F
:100BCC000E94980770F3959FC1F3950F50E0551F45
:100BDC00629FF001729FBB27F00DB11D639FAA2786
:100BEC00F00DB11DAA1F649F6627B00DA11D661FD5
:100BFC00829F2227B00DA11D621F739FB00DA11DF6
:100C0C00621F839FA00D611D221F749F3327A00DAF
:100C1C00611D231F849F600D211D822F762F6A2F4B
:100C2C0011249F5750409AF0F1F088234AF0EE0FB0
:100C3C00FF1FBB1F661F771F881F91505040A9F7DD
:100C4C009E3F510580F00C9488080C9482085F3FFD
:100C5C00E4F3983ED4F3869577956795B795F79519
:100C6C00E7959F5FC1F7FE2B880F911D9695879591
:040C7C0097F9089547
:100C8000FA01AA27283051F1203181F1E8946F93BD
:100C90006E7F6E5F7F4F8F4F9F4FAF4FB1E03ED063
:100CA000B4E03CD0670F781F891F9A1FA11D680F01
:100CB000791F8A1F911DA11D6A0F711D811D911D34
:100CC000A11D20D009F468943F912AE0269F1124A9
:100CD0003019305D3193DEF6CF010895462F47700D
:100CE000405D4193B3E00FD0C9F7F6CF462F4F7068
:100CF000405D4A3318F0495D31FD4052419302D0C6
:100D0000A9F7EACFB4E0A69597958795779567956B
:100D1000BA95C9F700976105710508959B01AC016B
:100D20000A2E06945795479537952795BA95C9F792
:0C0D3000620F731F841F951FA01D089503
:100D3C00E89409C097FB3EF4909580957095619569
:100D4C007F4F8F4F9F4F9923A9F0F92F96E9BB271F
:100D5C009395F695879577956795B795F111F8CF9B
:100D6C00FAF4BB0F11F460FF1BC06F5F7F4F8F4F06
:100D7C009F4F16C0882311F096E911C0772321F0FC
:100D8C009EE8872F762F05C0662371F096E8862F94
:100D9C0070E060E02AF09A95660F771F881FDAF7EB
:0A0DAC00880F9695879597F9089532
:100DB6000F931F93CF93DF93FB01248121FD03C083
:100DC6008FEF9FEF2CC022FF16C0478150852581EB
:100DD60036814217530744F4A081B1819D012F5FEC
:100DE6003F4F318320838C93278130852F5F3F4F80
:100DF6003087278314C08B01EC01FB010184F28547
:100E0600E02D0995892BE1F6D80117968D919C91D5
:100E16001897019618969C938E931797CE01DF919B
:080E2600CF911F910F91089577
:100E2E00E2ECF0E080818F7B808380818F778083FE
:100E3E0080818F7E808380818F7D80838081877F7C
:100E4E008083808182608083808184608083E1ECF6
:100E5E00F0E080818B7F8083A0ECB0E08C9182608B
:100E6E008C938FEC90E09093C5008093C4008081AA
:100E7E0088608083808180618083808180688083A8
:020E8E000895C5
:100E90001F920F920FB60F9211248F939F93EF938F
:100EA000FF939091C60090931801E0ECF0E08081F0
:100EB00085FFFDCF923359F018F4913331F00CC017
:100EC000933339F0943339F007C0289805C0289A35
:100ED00003C0299801C0299AFF91EF919F918F91AA
:0A0EE0000F900FBE0F901F901895A1
:100EEA00AFE0B0E0EBE7F7E00C94C8070E891F8982
:100EFA0086E08D831A8309838FEF9FE79F838E8312
:100F0A009E01255E3F4F488D598D6A8DCE0101960F
:100F1A000E94E800E885F985E00FF11F10822F96FC
:060F2A00E4E00C94FF0757
:100F300057FD9058440F551F59F05F3F71F047958A
:100F4000880F97FB991F61F09F3F79F0879508956F
:100F5000121613061406551FF2CF4695F1DF08C08E
:100F6000161617061806991FF1CF869571056105AB
:040F70000894089544
:100F74002F923F924F925F926F927F928F929F92A5
:100F8400AF92BF92CF92DF92EF92FF920F931F9393
:100F9400CF93DF93CDB7DEB7CA1BDB0B0FB6F89444
:080FA400DEBF0FBECDBF0994B2
:100FAC00CF92DF92EF926B01E82EFB018491E7FC6C
:100FBC008081882361F09FEFC91AD90AE90A0E943F
:100FCC006B08F6018491E7FC80818111F4CFEF90DE
:060FDC00DF90CF900895A4
:100FE2002A88398848885F846E847D848C849B84B7
:100FF200AA84B984C884DF80EE80FD800C811B81C5
:10100200AA81B981CE0FD11D0FB6F894DEBF0FBEF3
:06101200CDBFED010895C1
:10101800CF92DF92EF926B01E82EA82FCB014115FA
:10102800510531F48C199D09EF90DF90CF90089508
:10103800FC012491A7FD20812223A1F30196A11D83
:0610480041505109ECCFFC
:10104E00ECE7F0E080818F778083808180648083FD
:10105E0080818F7D8083EAE7F0E080818F778083C7
:10106E0080818F7D80838081876080838FEF8093E6
:04107E007E00089553
:10108200ECE7F0E09081907F8F70892B8083EAE714
:10109200F0E08081806C8083808186FDFDCFEAE76D
:1010A200F0E080818F778083809178009091790041
:0210B20008959F
:1010B400092E0394000C11F4882352F0BB0F40F462
:1010C400BF2B11F460FF04C06F5F7F4F8F4F9F4FA2
:0210D40008957D
:1010D600E0ECF0E0908195FFFDCF8093C600089587
:0E10E60000240A941616170618060906089527
:0E10F40000240A941216130614060506089529
:0E110200E894BB2766277727CB0197F908955D
:0C11100097F99F6780E870E060E00895A8
:08111C000E94D6050C945A084C
:061124009FEF80EC08952E
:04112A000C94000021
:00000001FF
